{
  "_format": "hh-sol-artifact-1",
  "contractName": "DonationTracker",
  "sourceName": "contracts/DonationTracker.sol",
  "abi": [
    {
      "inputs": [
        {
          "internalType": "address",
          "name": "_ngoRegistry",
          "type": "address"
        }
      ],
      "stateMutability": "nonpayable",
      "type": "constructor"
    },
    {
      "inputs": [],
      "name": "EnforcedPause",
      "type": "error"
    },
    {
      "inputs": [],
      "name": "ExpectedPause",
      "type": "error"
    },
    {
      "inputs": [
        {
          "internalType": "address",
          "name": "owner",
          "type": "address"
        }
      ],
      "name": "OwnableInvalidOwner",
      "type": "error"
    },
    {
      "inputs": [
        {
          "internalType": "address",
          "name": "account",
          "type": "address"
        }
      ],
      "name": "OwnableUnauthorizedAccount",
      "type": "error"
    },
    {
      "inputs": [],
      "name": "ReentrancyGuardReentrantCall",
      "type": "error"
    },
    {
      "anonymous": false,
      "inputs": [
        {
          "indexed": true,
          "internalType": "address",
          "name": "donor",
          "type": "address"
        },
        {
          "indexed": true,
          "internalType": "address",
          "name": "ngoAddress",
          "type": "address"
        },
        {
          "indexed": false,
          "internalType": "uint256",
          "name": "amount",
          "type": "uint256"
        },
        {
          "indexed": false,
          "internalType": "string",
          "name": "campaignId",
          "type": "string"
        },
        {
          "indexed": false,
          "internalType": "uint256",
          "name": "timestamp",
          "type": "uint256"
        },
        {
          "indexed": false,
          "internalType": "uint256",
          "name": "donationIndex",
          "type": "uint256"
        }
      ],
      "name": "DonationReceived",
      "type": "event"
    },
    {
      "anonymous": false,
      "inputs": [
        {
          "indexed": true,
          "internalType": "address",
          "name": "ngoAddress",
          "type": "address"
        },
        {
          "indexed": false,
          "internalType": "uint256",
          "name": "amount",
          "type": "uint256"
        },
        {
          "indexed": false,
          "internalType": "uint256",
          "name": "timestamp",
          "type": "uint256"
        }
      ],
      "name": "FundsWithdrawn",
      "type": "event"
    },
    {
      "anonymous": false,
      "inputs": [
        {
          "indexed": true,
          "internalType": "address",
          "name": "previousOwner",
          "type": "address"
        },
        {
          "indexed": true,
          "internalType": "address",
          "name": "newOwner",
          "type": "address"
        }
      ],
      "name": "OwnershipTransferred",
      "type": "event"
    },
    {
      "anonymous": false,
      "inputs": [
        {
          "indexed": false,
          "internalType": "address",
          "name": "account",
          "type": "address"
        }
      ],
      "name": "Paused",
      "type": "event"
    },
    {
      "anonymous": false,
      "inputs": [
        {
          "indexed": true,
          "internalType": "address",
          "name": "newRegistry",
          "type": "address"
        }
      ],
      "name": "RegistryUpdated",
      "type": "event"
    },
    {
      "anonymous": false,
      "inputs": [
        {
          "indexed": false,
          "internalType": "address",
          "name": "account",
          "type": "address"
        }
      ],
      "name": "Unpaused",
      "type": "event"
    },
    {
      "inputs": [
        {
          "internalType": "address",
          "name": "_ngoAddress",
          "type": "address"
        },
        {
          "internalType": "string",
          "name": "_campaignId",
          "type": "string"
        }
      ],
      "name": "donate",
      "outputs": [],
      "stateMutability": "payable",
      "type": "function"
    },
    {
      "inputs": [
        {
          "internalType": "uint256",
          "name": "",
          "type": "uint256"
        }
      ],
      "name": "donations",
      "outputs": [
        {
          "internalType": "address",
          "name": "donor",
          "type": "address"
        },
        {
          "internalType": "address",
          "name": "ngoAddress",
          "type": "address"
        },
        {
          "internalType": "uint256",
          "name": "amount",
          "type": "uint256"
        },
        {
          "internalType": "string",
          "name": "campaignId",
          "type": "string"
        },
        {
          "internalType": "uint256",
          "name": "timestamp",
          "type": "uint256"
        },
        {
          "internalType": "uint256",
          "name": "blockNumber",
          "type": "uint256"
        }
      ],
      "stateMutability": "view",
      "type": "function"
    },
    {
      "inputs": [
        {
          "internalType": "address",
          "name": "",
          "type": "address"
        }
      ],
      "name": "donorDonationCount",
      "outputs": [
        {
          "internalType": "uint256",
          "name": "",
          "type": "uint256"
        }
      ],
      "stateMutability": "view",
      "type": "function"
    },
    {
      "inputs": [
        {
          "internalType": "address",
          "name": "",
          "type": "address"
        },
        {
          "internalType": "uint256",
          "name": "",
          "type": "uint256"
        }
      ],
      "name": "donorDonationIndices",
      "outputs": [
        {
          "internalType": "uint256",
          "name": "",
          "type": "uint256"
        }
      ],
      "stateMutability": "view",
      "type": "function"
    },
    {
      "inputs": [
        {
          "internalType": "address",
          "name": "_ngoAddress",
          "type": "address"
        },
        {
          "internalType": "string",
          "name": "_campaignId",
          "type": "string"
        }
      ],
      "name": "getCampaignTotal",
      "outputs": [
        {
          "internalType": "uint256",
          "name": "",
          "type": "uint256"
        }
      ],
      "stateMutability": "view",
      "type": "function"
    },
    {
      "inputs": [
        {
          "internalType": "uint256",
          "name": "_index",
          "type": "uint256"
        }
      ],
      "name": "getDonation",
      "outputs": [
        {
          "components": [
            {
              "internalType": "address",
              "name": "donor",
              "type": "address"
            },
            {
              "internalType": "address",
              "name": "ngoAddress",
              "type": "address"
            },
            {
              "internalType": "uint256",
              "name": "amount",
              "type": "uint256"
            },
            {
              "internalType": "string",
              "name": "campaignId",
              "type": "string"
            },
            {
              "internalType": "uint256",
              "name": "timestamp",
              "type": "uint256"
            },
            {
              "internalType": "uint256",
              "name": "blockNumber",
              "type": "uint256"
            }
          ],
          "internalType": "struct DonationTracker.Donation",
          "name": "",
          "type": "tuple"
        }
      ],
      "stateMutability": "view",
      "type": "function"
    },
    {
      "inputs": [],
      "name": "getDonationCount",
      "outputs": [
        {
          "internalType": "uint256",
          "name": "",
          "type": "uint256"
        }
      ],
      "stateMutability": "view",
      "type": "function"
    },
    {
      "inputs": [
        {
          "internalType": "address",
          "name": "_donor",
          "type": "address"
        }
      ],
      "name": "getDonorDonationIndices",
      "outputs": [
        {
          "internalType": "uint256[]",
          "name": "",
          "type": "uint256[]"
        }
      ],
      "stateMutability": "view",
      "type": "function"
    },
    {
      "inputs": [
        {
          "internalType": "address",
          "name": "_ngoAddress",
          "type": "address"
        }
      ],
      "name": "getNGODonationIndices",
      "outputs": [
        {
          "internalType": "uint256[]",
          "name": "",
          "type": "uint256[]"
        }
      ],
      "stateMutability": "view",
      "type": "function"
    },
    {
      "inputs": [
        {
          "internalType": "address",
          "name": "",
          "type": "address"
        }
      ],
      "name": "ngoBalances",
      "outputs": [
        {
          "internalType": "uint256",
          "name": "",
          "type": "uint256"
        }
      ],
      "stateMutability": "view",
      "type": "function"
    },
    {
      "inputs": [
        {
          "internalType": "address",
          "name": "",
          "type": "address"
        },
        {
          "internalType": "uint256",
          "name": "",
          "type": "uint256"
        }
      ],
      "name": "ngoDonationIndices",
      "outputs": [
        {
          "internalType": "uint256",
          "name": "",
          "type": "uint256"
        }
      ],
      "stateMutability": "view",
      "type": "function"
    },
    {
      "inputs": [],
      "name": "ngoRegistry",
      "outputs": [
        {
          "internalType": "contract INGORegistry",
          "name": "",
          "type": "address"
        }
      ],
      "stateMutability": "view",
      "type": "function"
    },
    {
      "inputs": [],
      "name": "owner",
      "outputs": [
        {
          "internalType": "address",
          "name": "",
          "type": "address"
        }
      ],
      "stateMutability": "view",
      "type": "function"
    },
    {
      "inputs": [],
      "name": "pause",
      "outputs": [],
      "stateMutability": "nonpayable",
      "type": "function"
    },
    {
      "inputs": [],
      "name": "paused",
      "outputs": [
        {
          "internalType": "bool",
          "name": "",
          "type": "bool"
        }
      ],
      "stateMutability": "view",
      "type": "function"
    },
    {
      "inputs": [],
      "name": "renounceOwnership",
      "outputs": [],
      "stateMutability": "nonpayable",
      "type": "function"
    },
    {
      "inputs": [
        {
          "internalType": "bytes32",
          "name": "",
          "type": "bytes32"
        }
      ],
      "name": "totalDonatedPerCampaign",
      "outputs": [
        {
          "internalType": "uint256",
          "name": "",
          "type": "uint256"
        }
      ],
      "stateMutability": "view",
      "type": "function"
    },
    {
      "inputs": [
        {
          "internalType": "address",
          "name": "",
          "type": "address"
        }
      ],
      "name": "totalDonatedPerDonor",
      "outputs": [
        {
          "internalType": "uint256",
          "name": "",
          "type": "uint256"
        }
      ],
      "stateMutability": "view",
      "type": "function"
    },
    {
      "inputs": [
        {
          "internalType": "address",
          "name": "",
          "type": "address"
        }
      ],
      "name": "totalDonatedPerNGO",
      "outputs": [
        {
          "internalType": "uint256",
          "name": "",
          "type": "uint256"
        }
      ],
      "stateMutability": "view",
      "type": "function"
    },
    {
      "inputs": [
        {
          "internalType": "address",
          "name": "newOwner",
          "type": "address"
        }
      ],
      "name": "transferOwnership",
      "outputs": [],
      "stateMutability": "nonpayable",
      "type": "function"
    },
    {
      "inputs": [],
      "name": "unpause",
      "outputs": [],
      "stateMutability": "nonpayable",
      "type": "function"
    },
    {
      "inputs": [
        {
          "internalType": "address",
          "name": "_newRegistry",
          "type": "address"
        }
      ],
      "name": "updateRegistry",
      "outputs": [],
      "stateMutability": "nonpayable",
      "type": "function"
    },
    {
      "inputs": [
        {
          "internalType": "uint256",
          "name": "_amount",
          "type": "uint256"
        }
      ],
      "name": "withdraw",
      "outputs": [],
      "stateMutability": "nonpayable",
      "type": "function"
    }
  ],
  "bytecode": "0x60806040523480156200001157600080fd5b50604051620018df380380620018df83398101604081905262000034916200015a565b33806200005c57604051631e4fbdf760e01b8152600060048201526024015b60405180910390fd5b62000067816200010a565b5060017f9b779b17422d0df92223018b32b4d1fa46e071723d6817e2486d003becc55f00556001600160a01b038116620000e45760405162461bcd60e51b815260206004820152601e60248201527f446f6e6174696f6e547261636b65723a207a65726f2072656769737472790000604482015260640162000053565b600180546001600160a01b0319166001600160a01b03929092169190911790556200018c565b600080546001600160a01b038381166001600160a01b0319831681178455604051919092169283917f8be0079c531659141344cd1fd0a4f28419497f9722a3daafe3b4186f6b6457e09190a35050565b6000602082840312156200016d57600080fd5b81516001600160a01b03811681146200018557600080fd5b9392505050565b611743806200019c6000396000f3fe6080604052600436106101405760003560e01c806377f2e8f4116100b6578063e55a62a81161006f578063e55a62a8146103ba578063e96eeedf146103cf578063ef07a81f146103ef578063ef382d7e1461041c578063f2fde38b1461043c578063f8626af81461045c57600080fd5b806377f2e8f4146102d55780638120b9b41461030d5780638456cb591461032d5780638da5cb5b14610342578063c612190214610360578063cc5475ad1461038d57600080fd5b80634498cf0a116101085780634498cf0a146101ef5780635c975abb1461021c578063620e3cd8146102465780636d48f3fb146102735780636f6cd931146102a0578063715018a6146102c057600080fd5b8063180f0879146101455780631a5da6c8146101855780632e1a7d4d146101a75780633f4ba83a146101c7578063429c14d7146101dc575b600080fd5b34801561015157600080fd5b50610172610160366004611228565b60046020526000908152604090205481565b6040519081526020015b60405180910390f35b34801561019157600080fd5b506101a56101a0366004611228565b61048e565b005b3480156101b357600080fd5b506101a56101c236600461124a565b61053b565b3480156101d357600080fd5b506101a56107a1565b6101a56101ea366004611263565b6107b3565b3480156101fb57600080fd5b5061017261020a36600461124a565b60056020526000908152604090205481565b34801561022857600080fd5b50600054600160a01b900460ff16604051901515815260200161017c565b34801561025257600080fd5b50610266610261366004611228565b610c0a565b60405161017c91906112e6565b34801561027f57600080fd5b5061017261028e366004611228565b60066020526000908152604090205481565b3480156102ac57600080fd5b506101726102bb36600461132a565b610c76565b3480156102cc57600080fd5b506101a5610ca7565b3480156102e157600080fd5b506001546102f5906001600160a01b031681565b6040516001600160a01b03909116815260200161017c565b34801561031957600080fd5b50610266610328366004611228565b610cb9565b34801561033957600080fd5b506101a5610d23565b34801561034e57600080fd5b506000546001600160a01b03166102f5565b34801561036c57600080fd5b5061017261037b366004611228565b60076020526000908152604090205481565b34801561039957600080fd5b506101726103a8366004611228565b60036020526000908152604090205481565b3480156103c657600080fd5b50600254610172565b3480156103db57600080fd5b506101726103ea366004611263565b610d33565b3480156103fb57600080fd5b5061040f61040a36600461124a565b610d79565b60405161017c919061139a565b34801561042857600080fd5b5061017261043736600461132a565b610f1f565b34801561044857600080fd5b506101a5610457366004611228565b610f3b565b34801561046857600080fd5b5061047c61047736600461124a565b610f76565b60405161017c96959493929190611400565b610496611056565b6001600160a01b0381166104f15760405162461bcd60e51b815260206004820152601d60248201527f446f6e6174696f6e547261636b65723a207a65726f206164647265737300000060448201526064015b60405180910390fd5b600180546001600160a01b0319166001600160a01b0383169081179091556040517fd6ceddf6d2a22f21c7c81675c518004eff43bc5c8a6fc32a0b748e69d58671cd90600090a250565b610543611083565b61054b6110ae565b6000811161059b5760405162461bcd60e51b815260206004820181905260248201527f446f6e6174696f6e547261636b65723a207a65726f207769746864726177616c60448201526064016104e8565b336000908152600360205260409020548111156106085760405162461bcd60e51b815260206004820152602560248201527f446f6e6174696f6e547261636b65723a20696e73756666696369656e742062616044820152646c616e636560d81b60648201526084016104e8565b600154604051635a7f701560e01b81523360048201526001600160a01b0390911690635a7f701590602401602060405180830381865afa158015610650573d6000803e3d6000fd5b505050506040513d601f19601f820116820180604052508101906106749190611448565b6106905760405162461bcd60e51b81526004016104e89061146a565b33600090815260036020526040812080548392906106af9084906114c1565b9091555050604051600090339083908381818185875af1925050503d80600081146106f6576040519150601f19603f3d011682016040523d82523d6000602084013e6106fb565b606091505b505090508061074c5760405162461bcd60e51b815260206004820181905260248201527f446f6e6174696f6e547261636b65723a207472616e73666572206661696c656460448201526064016104e8565b6040805183815242602082015233917ffbc3a599b784fe88772fc5abcc07223f64ca0b13acc341f4fb1e46bef0510eb4910160405180910390a25061079e60016000805160206116ee83398151915255565b50565b6107a9611056565b6107b16110ca565b565b6107bb611083565b6107c36110ae565b600034116108135760405162461bcd60e51b815260206004820152601e60248201527f446f6e6174696f6e547261636b65723a207a65726f20646f6e6174696f6e000060448201526064016104e8565b60015460405163c3c5a54760e01b81526001600160a01b0385811660048301529091169063c3c5a54790602401602060405180830381865afa15801561085d573d6000803e3d6000fd5b505050506040513d601f19601f820116820180604052508101906108819190611448565b6108d95760405162461bcd60e51b815260206004820152602360248201527f446f6e6174696f6e547261636b65723a204e474f206e6f7420726567697374656044820152621c995960ea1b60648201526084016104e8565b600154604051635a7f701560e01b81526001600160a01b03858116600483015290911690635a7f701590602401602060405180830381865afa158015610923573d6000803e3d6000fd5b505050506040513d601f19601f820116820180604052508101906109479190611448565b6109635760405162461bcd60e51b81526004016104e89061146a565b6000600280549050905060026040518060c00160405280336001600160a01b03168152602001866001600160a01b0316815260200134815260200185858080601f01602080910402602001604051908101604052809392919081815260200183838082843760009201829052509385525050426020808501919091524360409485015285546001818101885596845292819020855160069094020180546001600160a01b039485166001600160a01b031991821617825591860151968101805497909416969091169590951790915550810151600283015560608101519091906003820190610a529082611578565b506080820151600482015560a0909101516005909101556001600160a01b03841660009081526003602052604081208054349290610a91908490611638565b90915550506001600160a01b03841660009081526004602052604081208054349290610abe908490611638565b90915550503360009081526006602052604081208054349290610ae2908490611638565b9091555050336000908152600760205260408120805491610b028361164b565b91905055506000848484604051602001610b1e93929190611664565b60405160208183030381529060405280519060200120905034600560008381526020019081526020016000206000828254610b599190611638565b9091555050336000818152600860209081526040808320805460018181018355918552838520018790556001600160a01b038a16808552600984528285208054928301815585529290932090920185905590519091907f3b0919e1a99c4a264009f6cf66cdbd5e6cab412e45db5f2db17457feab240ee890610be49034908990899042908a90611690565b60405180910390a35050610c0560016000805160206116ee83398151915255565b505050565b6001600160a01b038116600090815260086020908152604091829020805483518184028101840190945280845260609392830182828015610c6a57602002820191906000526020600020905b815481526020019060010190808311610c56575b50505050509050919050565b60086020528160005260406000208181548110610c9257600080fd5b90600052602060002001600091509150505481565b610caf611056565b6107b1600061111f565b6001600160a01b038116600090815260096020908152604091829020805483518184028101840190945280845260609392830182828015610c6a5760200282019190600052602060002090815481526020019060010190808311610c565750505050509050919050565b610d2b611056565b6107b161116f565b600080848484604051602001610d4b93929190611664565b60408051808303601f1901815291815281516020928301206000908152600590925290205495945050505050565b610dc46040518060c0016040528060006001600160a01b0316815260200160006001600160a01b03168152602001600081526020016060815260200160008152602001600081525090565b6002548210610e155760405162461bcd60e51b815260206004820152601e60248201527f446f6e6174696f6e547261636b65723a20696e76616c696420696e646578000060448201526064016104e8565b60028281548110610e2857610e286116d7565b60009182526020918290206040805160c081018252600690930290910180546001600160a01b03908116845260018201541693830193909352600283015490820152600382018054919291606084019190610e82906114f0565b80601f0160208091040260200160405190810160405280929190818152602001828054610eae906114f0565b8015610efb5780601f10610ed057610100808354040283529160200191610efb565b820191906000526020600020905b815481529060010190602001808311610ede57829003601f168201915b50505050508152602001600482015481526020016005820154815250509050919050565b60096020528160005260406000208181548110610c9257600080fd5b610f43611056565b6001600160a01b038116610f6d57604051631e4fbdf760e01b8152600060048201526024016104e8565b61079e8161111f565b60028181548110610f8657600080fd5b600091825260209091206006909102018054600182015460028301546003840180546001600160a01b039485169650929093169390929091610fc7906114f0565b80601f0160208091040260200160405190810160405280929190818152602001828054610ff3906114f0565b80156110405780601f1061101557610100808354040283529160200191611040565b820191906000526020600020905b81548152906001019060200180831161102357829003601f168201915b5050505050908060040154908060050154905086565b6000546001600160a01b031633146107b15760405163118cdaa760e01b81523360048201526024016104e8565b600054600160a01b900460ff16156107b15760405163d93c066560e01b815260040160405180910390fd5b6110b66111b2565b60026000805160206116ee83398151915255565b6110d26111e2565b6000805460ff60a01b191690557f5db9ee0a495bf2e6ff9c91a7834c1ba4fdd244a5e8aa4e537bd38aeae4b073aa335b6040516001600160a01b03909116815260200160405180910390a1565b600080546001600160a01b038381166001600160a01b0319831681178455604051919092169283917f8be0079c531659141344cd1fd0a4f28419497f9722a3daafe3b4186f6b6457e09190a35050565b611177611083565b6000805460ff60a01b1916600160a01b1790557f62e78cea01bee320cd4e420270b5ea74000d11b0c9f74754ebdbfc544b05a2586111023390565b6000805160206116ee833981519152546002036107b157604051633ee5aeb560e01b815260040160405180910390fd5b600054600160a01b900460ff166107b157604051638dfc202b60e01b815260040160405180910390fd5b80356001600160a01b038116811461122357600080fd5b919050565b60006020828403121561123a57600080fd5b6112438261120c565b9392505050565b60006020828403121561125c57600080fd5b5035919050565b60008060006040848603121561127857600080fd5b6112818461120c565b9250602084013567ffffffffffffffff8082111561129e57600080fd5b818601915086601f8301126112b257600080fd5b8135818111156112c157600080fd5b8760208285010111156112d357600080fd5b6020830194508093505050509250925092565b6020808252825182820181905260009190848201906040850190845b8181101561131e57835183529284019291840191600101611302565b50909695505050505050565b6000806040838503121561133d57600080fd5b6113468361120c565b946020939093013593505050565b6000815180845260005b8181101561137a5760208185018101518683018201520161135e565b506000602082860101526020601f19601f83011685010191505092915050565b60208152600060018060a01b038084511660208401528060208501511660408401525060408301516060830152606083015160c060808401526113e060e0840182611354565b9050608084015160a084015260a084015160c08401528091505092915050565b6001600160a01b038781168252861660208201526040810185905260c06060820181905260009061143390830186611354565b60808301949094525060a00152949350505050565b60006020828403121561145a57600080fd5b8151801515811461124357600080fd5b60208082526021908201527f446f6e6174696f6e547261636b65723a204e474f206e6f7420766572696669656040820152601960fa1b606082015260800190565b634e487b7160e01b600052601160045260246000fd5b818103818111156114d4576114d46114ab565b92915050565b634e487b7160e01b600052604160045260246000fd5b600181811c9082168061150457607f821691505b60208210810361152457634e487b7160e01b600052602260045260246000fd5b50919050565b601f821115610c0557600081815260208120601f850160051c810160208610156115515750805b601f850160051c820191505b818110156115705782815560010161155d565b505050505050565b815167ffffffffffffffff811115611592576115926114da565b6115a6816115a084546114f0565b8461152a565b602080601f8311600181146115db57600084156115c35750858301515b600019600386901b1c1916600185901b178555611570565b600085815260208120601f198616915b8281101561160a578886015182559484019460019091019084016115eb565b50858210156116285787850151600019600388901b60f8161c191681555b5050505050600190811b01905550565b808201808211156114d4576114d46114ab565b60006001820161165d5761165d6114ab565b5060010190565b6bffffffffffffffffffffffff198460601b168152818360148301376000910160140190815292915050565b85815260806020820152836080820152838560a0830137600060a08583010152600060a0601f19601f87011683010190508360408301528260608301529695505050505050565b634e487b7160e01b600052603260045260246000fdfe9b779b17422d0df92223018b32b4d1fa46e071723d6817e2486d003becc55f00a264697066735822122072cd0d0c1d6060f2ed1c2dc3be6af15f7a14c095c6fcfefe2915b8d138a1404764736f6c63430008140033",
  "linkReferences": {},
  "deployedLinkReferences": {}
}