{
  "_format": "hh-sol-artifact-1",
  "contractName": "MilestoneVault",
  "sourceName": "contracts/MilestoneVault.sol",
  "abi": [
    {
      "inputs": [
        {
          "internalType": "address",
          "name": "_ngoRegistry",
          "type": "address"
        }
      ],
      "stateMutability": "nonpayable",
      "type": "constructor"
    },
    {
      "inputs": [],
      "name": "EnforcedPause",
      "type": "error"
    },
    {
      "inputs": [],
      "name": "ExpectedPause",
      "type": "error"
    },
    {
      "inputs": [
        {
          "internalType": "address",
          "name": "owner",
          "type": "address"
        }
      ],
      "name": "OwnableInvalidOwner",
      "type": "error"
    },
    {
      "inputs": [
        {
          "internalType": "address",
          "name": "account",
          "type": "address"
        }
      ],
      "name": "OwnableUnauthorizedAccount",
      "type": "error"
    },
    {
      "inputs": [],
      "name": "ReentrancyGuardReentrantCall",
      "type": "error"
    },
    {
      "anonymous": false,
      "inputs": [
        {
          "indexed": true,
          "internalType": "uint256",
          "name": "campaignId",
          "type": "uint256"
        },
        {
          "indexed": true,
          "internalType": "address",
          "name": "ngoAddress",
          "type": "address"
        },
        {
          "indexed": false,
          "internalType": "string",
          "name": "title",
          "type": "string"
        },
        {
          "indexed": false,
          "internalType": "uint256",
          "name": "totalTarget",
          "type": "uint256"
        },
        {
          "indexed": false,
          "internalType": "uint256",
          "name": "deadline",
          "type": "uint256"
        },
        {
          "indexed": false,
          "internalType": "uint256",
          "name": "milestoneCount",
          "type": "uint256"
        }
      ],
      "name": "CampaignCreated",
      "type": "event"
    },
    {
      "anonymous": false,
      "inputs": [
        {
          "indexed": true,
          "internalType": "uint256",
          "name": "campaignId",
          "type": "uint256"
        },
        {
          "indexed": false,
          "internalType": "enum MilestoneVault.CampaignStatus",
          "name": "newStatus",
          "type": "uint8"
        }
      ],
      "name": "CampaignStatusChanged",
      "type": "event"
    },
    {
      "anonymous": false,
      "inputs": [
        {
          "indexed": true,
          "internalType": "uint256",
          "name": "campaignId",
          "type": "uint256"
        },
        {
          "indexed": true,
          "internalType": "address",
          "name": "donor",
          "type": "address"
        },
        {
          "indexed": false,
          "internalType": "uint256",
          "name": "amount",
          "type": "uint256"
        },
        {
          "indexed": false,
          "internalType": "uint256",
          "name": "timestamp",
          "type": "uint256"
        }
      ],
      "name": "FundsContributed",
      "type": "event"
    },
    {
      "anonymous": false,
      "inputs": [
        {
          "indexed": true,
          "internalType": "uint256",
          "name": "campaignId",
          "type": "uint256"
        },
        {
          "indexed": true,
          "internalType": "address",
          "name": "ngoAddress",
          "type": "address"
        },
        {
          "indexed": false,
          "internalType": "uint256",
          "name": "amount",
          "type": "uint256"
        },
        {
          "indexed": false,
          "internalType": "uint256",
          "name": "milestoneIndex",
          "type": "uint256"
        }
      ],
      "name": "FundsReleased",
      "type": "event"
    },
    {
      "anonymous": false,
      "inputs": [
        {
          "indexed": true,
          "internalType": "uint256",
          "name": "campaignId",
          "type": "uint256"
        },
        {
          "indexed": false,
          "internalType": "uint256",
          "name": "milestoneIndex",
          "type": "uint256"
        },
        {
          "indexed": false,
          "internalType": "uint256",
          "name": "approvedAt",
          "type": "uint256"
        }
      ],
      "name": "MilestoneApproved",
      "type": "event"
    },
    {
      "anonymous": false,
      "inputs": [
        {
          "indexed": true,
          "internalType": "uint256",
          "name": "campaignId",
          "type": "uint256"
        },
        {
          "indexed": false,
          "internalType": "uint256",
          "name": "milestoneIndex",
          "type": "uint256"
        },
        {
          "indexed": false,
          "internalType": "string",
          "name": "description",
          "type": "string"
        },
        {
          "indexed": false,
          "internalType": "uint256",
          "name": "targetAmount",
          "type": "uint256"
        }
      ],
      "name": "MilestoneCreated",
      "type": "event"
    },
    {
      "anonymous": false,
      "inputs": [
        {
          "indexed": true,
          "internalType": "address",
          "name": "previousOwner",
          "type": "address"
        },
        {
          "indexed": true,
          "internalType": "address",
          "name": "newOwner",
          "type": "address"
        }
      ],
      "name": "OwnershipTransferred",
      "type": "event"
    },
    {
      "anonymous": false,
      "inputs": [
        {
          "indexed": false,
          "internalType": "address",
          "name": "account",
          "type": "address"
        }
      ],
      "name": "Paused",
      "type": "event"
    },
    {
      "anonymous": false,
      "inputs": [
        {
          "indexed": true,
          "internalType": "uint256",
          "name": "campaignId",
          "type": "uint256"
        },
        {
          "indexed": true,
          "internalType": "address",
          "name": "donor",
          "type": "address"
        },
        {
          "indexed": false,
          "internalType": "uint256",
          "name": "amount",
          "type": "uint256"
        }
      ],
      "name": "RefundIssued",
      "type": "event"
    },
    {
      "anonymous": false,
      "inputs": [
        {
          "indexed": false,
          "internalType": "address",
          "name": "account",
          "type": "address"
        }
      ],
      "name": "Unpaused",
      "type": "event"
    },
    {
      "inputs": [
        {
          "internalType": "uint256",
          "name": "_campaignId",
          "type": "uint256"
        },
        {
          "internalType": "uint256",
          "name": "_milestoneIndex",
          "type": "uint256"
        }
      ],
      "name": "approveMilestone",
      "outputs": [],
      "stateMutability": "nonpayable",
      "type": "function"
    },
    {
      "inputs": [],
      "name": "campaignCounter",
      "outputs": [
        {
          "internalType": "uint256",
          "name": "",
          "type": "uint256"
        }
      ],
      "stateMutability": "view",
      "type": "function"
    },
    {
      "inputs": [
        {
          "internalType": "uint256",
          "name": "",
          "type": "uint256"
        },
        {
          "internalType": "uint256",
          "name": "",
          "type": "uint256"
        }
      ],
      "name": "campaignDonors",
      "outputs": [
        {
          "internalType": "address",
          "name": "",
          "type": "address"
        }
      ],
      "stateMutability": "view",
      "type": "function"
    },
    {
      "inputs": [
        {
          "internalType": "uint256",
          "name": "",
          "type": "uint256"
        }
      ],
      "name": "campaigns",
      "outputs": [
        {
          "internalType": "uint256",
          "name": "id",
          "type": "uint256"
        },
        {
          "internalType": "address",
          "name": "ngoAddress",
          "type": "address"
        },
        {
          "internalType": "string",
          "name": "title",
          "type": "string"
        },
        {
          "internalType": "uint256",
          "name": "totalTarget",
          "type": "uint256"
        },
        {
          "internalType": "uint256",
          "name": "totalFunded",
          "type": "uint256"
        },
        {
          "internalType": "uint256",
          "name": "totalReleased",
          "type": "uint256"
        },
        {
          "internalType": "uint256",
          "name": "deadline",
          "type": "uint256"
        },
        {
          "internalType": "enum MilestoneVault.CampaignStatus",
          "name": "status",
          "type": "uint8"
        },
        {
          "internalType": "uint256",
          "name": "milestoneCount",
          "type": "uint256"
        },
        {
          "internalType": "uint256",
          "name": "createdAt",
          "type": "uint256"
        }
      ],
      "stateMutability": "view",
      "type": "function"
    },
    {
      "inputs": [
        {
          "internalType": "uint256",
          "name": "_campaignId",
          "type": "uint256"
        }
      ],
      "name": "claimRefund",
      "outputs": [],
      "stateMutability": "nonpayable",
      "type": "function"
    },
    {
      "inputs": [
        {
          "internalType": "uint256",
          "name": "",
          "type": "uint256"
        },
        {
          "internalType": "address",
          "name": "",
          "type": "address"
        }
      ],
      "name": "contributions",
      "outputs": [
        {
          "internalType": "uint256",
          "name": "",
          "type": "uint256"
        }
      ],
      "stateMutability": "view",
      "type": "function"
    },
    {
      "inputs": [
        {
          "internalType": "string",
          "name": "_title",
          "type": "string"
        },
        {
          "internalType": "uint256",
          "name": "_totalTarget",
          "type": "uint256"
        },
        {
          "internalType": "uint256",
          "name": "_deadline",
          "type": "uint256"
        },
        {
          "internalType": "string[]",
          "name": "_milestoneDescriptions",
          "type": "string[]"
        },
        {
          "internalType": "uint256[]",
          "name": "_milestoneTargets",
          "type": "uint256[]"
        }
      ],
      "name": "createCampaign",
      "outputs": [],
      "stateMutability": "nonpayable",
      "type": "function"
    },
    {
      "inputs": [
        {
          "internalType": "uint256",
          "name": "_campaignId",
          "type": "uint256"
        }
      ],
      "name": "expireCampaign",
      "outputs": [],
      "stateMutability": "nonpayable",
      "type": "function"
    },
    {
      "inputs": [
        {
          "internalType": "uint256",
          "name": "_campaignId",
          "type": "uint256"
        }
      ],
      "name": "failCampaign",
      "outputs": [],
      "stateMutability": "nonpayable",
      "type": "function"
    },
    {
      "inputs": [
        {
          "internalType": "uint256",
          "name": "_campaignId",
          "type": "uint256"
        }
      ],
      "name": "fundCampaign",
      "outputs": [],
      "stateMutability": "payable",
      "type": "function"
    },
    {
      "inputs": [
        {
          "internalType": "uint256",
          "name": "_campaignId",
          "type": "uint256"
        }
      ],
      "name": "getCampaign",
      "outputs": [
        {
          "components": [
            {
              "internalType": "uint256",
              "name": "id",
              "type": "uint256"
            },
            {
              "internalType": "address",
              "name": "ngoAddress",
              "type": "address"
            },
            {
              "internalType": "string",
              "name": "title",
              "type": "string"
            },
            {
              "internalType": "uint256",
              "name": "totalTarget",
              "type": "uint256"
            },
            {
              "internalType": "uint256",
              "name": "totalFunded",
              "type": "uint256"
            },
            {
              "internalType": "uint256",
              "name": "totalReleased",
              "type": "uint256"
            },
            {
              "internalType": "uint256",
              "name": "deadline",
              "type": "uint256"
            },
            {
              "internalType": "enum MilestoneVault.CampaignStatus",
              "name": "status",
              "type": "uint8"
            },
            {
              "internalType": "uint256",
              "name": "milestoneCount",
              "type": "uint256"
            },
            {
              "internalType": "uint256",
              "name": "createdAt",
              "type": "uint256"
            }
          ],
          "internalType": "struct MilestoneVault.Campaign",
          "name": "",
          "type": "tuple"
        }
      ],
      "stateMutability": "view",
      "type": "function"
    },
    {
      "inputs": [],
      "name": "getCampaignCount",
      "outputs": [
        {
          "internalType": "uint256",
          "name": "",
          "type": "uint256"
        }
      ],
      "stateMutability": "view",
      "type": "function"
    },
    {
      "inputs": [
        {
          "internalType": "uint256",
          "name": "_campaignId",
          "type": "uint256"
        }
      ],
      "name": "getCampaignDonors",
      "outputs": [
        {
          "internalType": "address[]",
          "name": "",
          "type": "address[]"
        }
      ],
      "stateMutability": "view",
      "type": "function"
    },
    {
      "inputs": [
        {
          "internalType": "uint256",
          "name": "_campaignId",
          "type": "uint256"
        },
        {
          "internalType": "address",
          "name": "_donor",
          "type": "address"
        }
      ],
      "name": "getContribution",
      "outputs": [
        {
          "internalType": "uint256",
          "name": "",
          "type": "uint256"
        }
      ],
      "stateMutability": "view",
      "type": "function"
    },
    {
      "inputs": [
        {
          "internalType": "uint256",
          "name": "_campaignId",
          "type": "uint256"
        },
        {
          "internalType": "uint256",
          "name": "_milestoneIndex",
          "type": "uint256"
        }
      ],
      "name": "getMilestone",
      "outputs": [
        {
          "components": [
            {
              "internalType": "string",
              "name": "description",
              "type": "string"
            },
            {
              "internalType": "uint256",
              "name": "targetAmount",
              "type": "uint256"
            },
            {
              "internalType": "bool",
              "name": "approved",
              "type": "bool"
            },
            {
              "internalType": "uint256",
              "name": "approvedAt",
              "type": "uint256"
            },
            {
              "internalType": "uint256",
              "name": "releasedAmount",
              "type": "uint256"
            }
          ],
          "internalType": "struct MilestoneVault.Milestone",
          "name": "",
          "type": "tuple"
        }
      ],
      "stateMutability": "view",
      "type": "function"
    },
    {
      "inputs": [
        {
          "internalType": "uint256",
          "name": "",
          "type": "uint256"
        },
        {
          "internalType": "address",
          "name": "",
          "type": "address"
        }
      ],
      "name": "hasDonated",
      "outputs": [
        {
          "internalType": "bool",
          "name": "",
          "type": "bool"
        }
      ],
      "stateMutability": "view",
      "type": "function"
    },
    {
      "inputs": [
        {
          "internalType": "uint256",
          "name": "",
          "type": "uint256"
        },
        {
          "internalType": "uint256",
          "name": "",
          "type": "uint256"
        }
      ],
      "name": "milestones",
      "outputs": [
        {
          "internalType": "string",
          "name": "description",
          "type": "string"
        },
        {
          "internalType": "uint256",
          "name": "targetAmount",
          "type": "uint256"
        },
        {
          "internalType": "bool",
          "name": "approved",
          "type": "bool"
        },
        {
          "internalType": "uint256",
          "name": "approvedAt",
          "type": "uint256"
        },
        {
          "internalType": "uint256",
          "name": "releasedAmount",
          "type": "uint256"
        }
      ],
      "stateMutability": "view",
      "type": "function"
    },
    {
      "inputs": [],
      "name": "ngoRegistry",
      "outputs": [
        {
          "internalType": "contract INGORegistryVault",
          "name": "",
          "type": "address"
        }
      ],
      "stateMutability": "view",
      "type": "function"
    },
    {
      "inputs": [],
      "name": "owner",
      "outputs": [
        {
          "internalType": "address",
          "name": "",
          "type": "address"
        }
      ],
      "stateMutability": "view",
      "type": "function"
    },
    {
      "inputs": [],
      "name": "pause",
      "outputs": [],
      "stateMutability": "nonpayable",
      "type": "function"
    },
    {
      "inputs": [],
      "name": "paused",
      "outputs": [
        {
          "internalType": "bool",
          "name": "",
          "type": "bool"
        }
      ],
      "stateMutability": "view",
      "type": "function"
    },
    {
      "inputs": [],
      "name": "renounceOwnership",
      "outputs": [],
      "stateMutability": "nonpayable",
      "type": "function"
    },
    {
      "inputs": [
        {
          "internalType": "address",
          "name": "newOwner",
          "type": "address"
        }
      ],
      "name": "transferOwnership",
      "outputs": [],
      "stateMutability": "nonpayable",
      "type": "function"
    },
    {
      "inputs": [],
      "name": "unpause",
      "outputs": [],
      "stateMutability": "nonpayable",
      "type": "function"
    },
    {
      "inputs": [
        {
          "internalType": "address",
          "name": "_newRegistry",
          "type": "address"
        }
      ],
      "name": "updateRegistry",
      "outputs": [],
      "stateMutability": "nonpayable",
      "type": "function"
    }
  ],
  "bytecode": "0x60806040523480156200001157600080fd5b50604051620027ec380380620027ec83398101604081905262000034916200015a565b33806200005c57604051631e4fbdf760e01b8152600060048201526024015b60405180910390fd5b62000067816200010a565b5060017f9b779b17422d0df92223018b32b4d1fa46e071723d6817e2486d003becc55f00556001600160a01b038116620000e45760405162461bcd60e51b815260206004820152601d60248201527f4d696c6573746f6e655661756c743a207a65726f207265676973747279000000604482015260640162000053565b600180546001600160a01b0319166001600160a01b03929092169190911790556200018c565b600080546001600160a01b038381166001600160a01b0319831681178455604051919092169283917f8be0079c531659141344cd1fd0a4f28419497f9722a3daafe3b4186f6b6457e09190a35050565b6000602082840312156200016d57600080fd5b81516001600160a01b03811681146200018557600080fd5b9392505050565b612650806200019c6000396000f3fe6080604052600436106101665760003560e01c80635c975abb116100d15780638ed9895c1161008a578063f25e1e9311610064578063f25e1e93146104b4578063f2fde38b146104d4578063fca604d7146104f4578063fdc3f7511461050a57600080fd5b80638ed9895c1461043157806392bd38bc1461045e578063e081dbf91461047157600080fd5b80635c975abb1461037d5780636caa92181461039c578063715018a6146103b157806377f2e8f4146103c65780638456cb59146103fe5780638da5cb5b1461041357600080fd5b8063209b7d5f11610123578063209b7d5f1461028857806328d1246d146102b55780633d891f59146102d55780633f4ba83a1461031b5780635598f8cc146103305780635b7baf641461035d57600080fd5b8063084285a91461016b578063141961bc1461018d5780631a5da6c8146101cc5780631c376c63146101ec5780631e1553981461021d57806320913da514610268575b600080fd5b34801561017757600080fd5b5061018b610186366004611e0c565b61052a565b005b34801561019957600080fd5b506101ad6101a8366004611e0c565b6105f3565b6040516101c39a99989796959493929190611ea3565b60405180910390f35b3480156101d857600080fd5b5061018b6101e7366004611f2c565b6106d9565b3480156101f857600080fd5b5061020c610207366004611f4e565b610759565b6040516101c3959493929190611f70565b34801561022957600080fd5b50610258610238366004611fa7565b600760209081526000928352604080842090915290825290205460ff1681565b60405190151581526020016101c3565b34801561027457600080fd5b5061018b610283366004611f4e565b61081f565b34801561029457600080fd5b506102a86102a3366004611e0c565b610bb2565b6040516101c39190611fd3565b3480156102c157600080fd5b5061018b6102d0366004611e0c565b610c1e565b3480156102e157600080fd5b5061030d6102f0366004611fa7565b600560209081526000928352604080842090915290825290205481565b6040519081526020016101c3565b34801561032757600080fd5b5061018b610d1d565b34801561033c57600080fd5b5061035061034b366004611e0c565b610d2f565b6040516101c39190612020565b34801561036957600080fd5b5061018b610378366004611e0c565b610ea8565b34801561038957600080fd5b50600054600160a01b900460ff16610258565b3480156103a857600080fd5b5060025461030d565b3480156103bd57600080fd5b5061018b611143565b3480156103d257600080fd5b506001546103e6906001600160a01b031681565b6040516001600160a01b0390911681526020016101c3565b34801561040a57600080fd5b5061018b611155565b34801561041f57600080fd5b506000546001600160a01b03166103e6565b34801561043d57600080fd5b5061045161044c366004611f4e565b611165565b6040516101c391906120bf565b61018b61046c366004611e0c565b6112b5565b34801561047d57600080fd5b5061030d61048c366004611fa7565b60009182526005602090815260408084206001600160a01b0393909316845291905290205490565b3480156104c057600080fd5b506103e66104cf366004611f4e565b6114eb565b3480156104e057600080fd5b5061018b6104ef366004611f2c565b611523565b34801561050057600080fd5b5061030d60025481565b34801561051657600080fd5b5061018b61052536600461215d565b61155e565b610532611be9565b60008181526003602081905260409091209081015461056c5760405162461bcd60e51b815260040161056390612235565b60405180910390fd5b6000600782015460ff16600381111561058757610587611e6b565b146105a45760405162461bcd60e51b815260040161056390612277565b60078101805460ff1916600290811790915560405183917f7e5e6bfcab605d9254dbb5c3b4c8bd65ee4705bb30b1fc434d9651d24d368f36916105e791906122ba565b60405180910390a25050565b60036020526000908152604090208054600182015460028301805492936001600160a01b0390921692610625906122c8565b80601f0160208091040260200160405190810160405280929190818152602001828054610651906122c8565b801561069e5780601f106106735761010080835404028352916020019161069e565b820191906000526020600020905b81548152906001019060200180831161068157829003601f168201915b505050600384015460048501546005860154600687015460078801546008890154600990990154979894979396509194509260ff909116918a565b6106e1611be9565b6001600160a01b0381166107375760405162461bcd60e51b815260206004820152601c60248201527f4d696c6573746f6e655661756c743a207a65726f2061646472657373000000006044820152606401610563565b600180546001600160a01b0319166001600160a01b0392909216919091179055565b600460209081526000928352604080842090915290825290208054819061077f906122c8565b80601f01602080910402602001604051908101604052809291908181526020018280546107ab906122c8565b80156107f85780601f106107cd576101008083540402835291602001916107f8565b820191906000526020600020905b8154815290600101906020018083116107db57829003601f168201915b505050506001830154600284015460038501546004909501549394919360ff909116925085565b610827611be9565b61082f611c16565b610837611c41565b6000828152600360208190526040909120908101546108685760405162461bcd60e51b815260040161056390612235565b6000600782015460ff16600381111561088357610883611e6b565b146108a05760405162461bcd60e51b815260040161056390612277565b806008015482106108c35760405162461bcd60e51b815260040161056390612302565b60008381526004602090815260408083208584529091529020600281015460ff16156109315760405162461bcd60e51b815260206004820181905260248201527f4d696c6573746f6e655661756c743a20616c726561647920617070726f7665646044820152606401610563565b60028101805460ff19166001179055426003820181905560405185917f6e3fd8bb18eed6833ae758e07c361bf145ce27c88bdf6d5029ddabf188d72ca69161098191878252602082015260400190565b60405180910390a260008260030154826001015484600401546109a49190612359565b6109ae9190612370565b90506000836005015484600401546109c69190612392565b9050808211156109d4578091505b8115610aef57818360040181905550818460050160008282546109f791906123a5565b909155505060018401546040516000916001600160a01b03169084908381818185875af1925050503d8060008114610a4b576040519150601f19603f3d011682016040523d82523d6000602084013e610a50565b606091505b5050905080610aa15760405162461bcd60e51b815260206004820152601f60248201527f4d696c6573746f6e655661756c743a207472616e73666572206661696c6564006044820152606401610563565b600185015460408051858152602081018990526001600160a01b039092169189917f93e901cc5aea20ea9655887d9290a3215a5b3999c024812f4e4b749f7534349c910160405180910390a3505b600160005b8560080154811015610b3f57600088815260046020908152604080832084845290915290206002015460ff16610b2d5760009150610b3f565b80610b37816123b8565b915050610af4565b508015610b925760078501805460ff1916600190811790915560405188917f7e5e6bfcab605d9254dbb5c3b4c8bd65ee4705bb30b1fc434d9651d24d368f3691610b8991906122ba565b60405180910390a25b5050505050610bae60016000805160206125fb83398151915255565b5050565b600081815260066020908152604091829020805483518184028101840190945280845260609392830182828015610c1257602002820191906000526020600020905b81546001600160a01b03168152600190910190602001808311610bf4575b50505050509050919050565b600081815260036020819052604090912090810154610c4f5760405162461bcd60e51b815260040161056390612235565b6000600782015460ff166003811115610c6a57610c6a611e6b565b14610c875760405162461bcd60e51b815260040161056390612277565b80600601544211610cda5760405162461bcd60e51b815260206004820152601b60248201527f4d696c6573746f6e655661756c743a206e6f74206578706972656400000000006044820152606401610563565b60078101805460ff1916600390811790915560405183917f7e5e6bfcab605d9254dbb5c3b4c8bd65ee4705bb30b1fc434d9651d24d368f36916105e791906122ba565b610d25611be9565b610d2d611c5d565b565b610d37611d9f565b60008281526003602081905260409091200154610d665760405162461bcd60e51b815260040161056390612235565b6000828152600360209081526040918290208251610140810184528154815260018201546001600160a01b0316928101929092526002810180549293919291840191610db1906122c8565b80601f0160208091040260200160405190810160405280929190818152602001828054610ddd906122c8565b8015610e2a5780601f10610dff57610100808354040283529160200191610e2a565b820191906000526020600020905b815481529060010190602001808311610e0d57829003601f168201915b50505091835250506003828101546020830152600483015460408301526005830154606083015260068301546080830152600783015460a09092019160ff1690811115610e7957610e79611e6b565b6003811115610e8a57610e8a611e6b565b81526008820154602082015260099091015460409091015292915050565b610eb0611c16565b610eb8611c41565b60008181526003602052604090206002600782015460ff166003811115610ee157610ee1611e6b565b1480610f0557506003600782015460ff166003811115610f0357610f03611e6b565b145b610f515760405162461bcd60e51b815260206004820152601e60248201527f4d696c6573746f6e655661756c743a206e6f7420726566756e6461626c6500006044820152606401610563565b600082815260056020908152604080832033845290915290205480610fb85760405162461bcd60e51b815260206004820152601f60248201527f4d696c6573746f6e655661756c743a206e6f20636f6e747269627574696f6e006044820152606401610563565b600082600501548360040154610fce9190612392565b9050600083600401548383610fe39190612359565b610fed9190612370565b90506000811161103f5760405162461bcd60e51b815260206004820152601b60248201527f4d696c6573746f6e655661756c743a207a65726f20726566756e6400000000006044820152606401610563565b60008581526005602090815260408083203380855292528083208390555183908381818185875af1925050503d8060008114611097576040519150601f19603f3d011682016040523d82523d6000602084013e61109c565b606091505b50509050806110ed5760405162461bcd60e51b815260206004820152601f60248201527f4d696c6573746f6e655661756c743a207472616e73666572206661696c6564006044820152606401610563565b604051828152339087907f7a482fdeb6bc9a1376f597068a214a7a39472bb2eff1b8cad21ba04f49ddca1b9060200160405180910390a3505050505061114060016000805160206125fb83398151915255565b50565b61114b611be9565b610d2d6000611cb2565b61115d611be9565b610d2d611d02565b6111996040518060a00160405280606081526020016000815260200160001515815260200160008152602001600081525090565b60008381526003602052604090206008015482106111c95760405162461bcd60e51b815260040161056390612302565b600083815260046020908152604080832085845290915290819020815160a081019092528054829082906111fc906122c8565b80601f0160208091040260200160405190810160405280929190818152602001828054611228906122c8565b80156112755780601f1061124a57610100808354040283529160200191611275565b820191906000526020600020905b81548152906001019060200180831161125857829003601f168201915b505050918352505060018201546020820152600282015460ff16151560408201526003820154606082015260049091015460809091015290505b92915050565b6112bd611c16565b6112c5611c41565b6000818152600360208190526040909120908101546112f65760405162461bcd60e51b815260040161056390612235565b6000600782015460ff16600381111561131157611311611e6b565b1461132e5760405162461bcd60e51b815260040161056390612277565b80600601544211156113825760405162461bcd60e51b815260206004820181905260248201527f4d696c6573746f6e655661756c743a2063616d706169676e20657870697265646044820152606401610563565b600034116113dc5760405162461bcd60e51b815260206004820152602160248201527f4d696c6573746f6e655661756c743a207a65726f20636f6e747269627574696f6044820152603760f91b6064820152608401610563565b348160040160008282546113f091906123a5565b909155505060008281526005602090815260408083203384529091528120805434929061141e9084906123a5565b9091555050600082815260076020908152604080832033845290915290205460ff166114975760008281526006602090815260408083208054600181810183559185528385200180546001600160a01b0319163390811790915586855260078452828520908552909252909120805460ff191690911790555b60408051348152426020820152339184917f67736a3b647ae26ec9a72015a26bd868a78887b5da952b47c4cff3c96b9df951910160405180910390a35061114060016000805160206125fb83398151915255565b6006602052816000526040600020818154811061150757600080fd5b6000918252602090912001546001600160a01b03169150829050565b61152b611be9565b6001600160a01b03811661155557604051631e4fbdf760e01b815260006004820152602401610563565b61114081611cb2565b611566611c16565b600154604051635a7f701560e01b81523360048201526001600160a01b0390911690635a7f701590602401602060405180830381865afa1580156115ae573d6000803e3d6000fd5b505050506040513d601f19601f820116820180604052508101906115d291906123d1565b61161e5760405162461bcd60e51b815260206004820181905260248201527f4d696c6573746f6e655661756c743a204e474f206e6f742076657269666965646044820152606401610563565b8661166b5760405162461bcd60e51b815260206004820152601b60248201527f4d696c6573746f6e655661756c743a20656d707479207469746c6500000000006044820152606401610563565b600086116116bb5760405162461bcd60e51b815260206004820152601b60248201527f4d696c6573746f6e655661756c743a207a65726f2074617267657400000000006044820152606401610563565b42851161170a5760405162461bcd60e51b815260206004820152601d60248201527f4d696c6573746f6e655661756c743a207061737420646561646c696e650000006044820152606401610563565b826117575760405162461bcd60e51b815260206004820152601d60248201527f4d696c6573746f6e655661756c743a206e6f206d696c6573746f6e65730000006044820152606401610563565b8281146117a65760405162461bcd60e51b815260206004820152601f60248201527f4d696c6573746f6e655661756c743a206c656e677468206d69736d61746368006044820152606401610563565b6000805b828110156118605760008484838181106117c6576117c66123f3565b90506020020135116118285760405162461bcd60e51b815260206004820152602560248201527f4d696c6573746f6e655661756c743a207a65726f206d696c6573746f6e652074604482015264185c99d95d60da1b6064820152608401610563565b83838281811061183a5761183a6123f3565b905060200201358261184c91906123a5565b915080611858816123b8565b9150506117aa565b508681146118b05760405162461bcd60e51b815260206004820152601f60248201527f4d696c6573746f6e655661756c743a20746172676574206d69736d61746368006044820152606401610563565b60028054600091826118c1836123b8565b919050559050604051806101400160405280828152602001336001600160a01b031681526020018b8b8080601f0160208091040260200160405190810160405280939291908181526020018383808284376000920182905250938552505050602082018b90526040820181905260608201819052608082018a905260a090910190815260208082018890524260409283015260008481526003825282902083518155908301516001820180546001600160a01b0319166001600160a01b0390921691909117905590820151600282019061199b908261246e565b50606082015181600301556080820151816004015560a0820151816005015560c0820151816006015560e08201518160070160006101000a81548160ff021916908360038111156119ee576119ee611e6b565b021790555061010082015160088201556101209091015160099091015560005b85811015611b98576040518060a00160405280888884818110611a3357611a336123f3565b9050602002810190611a45919061252e565b8080601f016020809104026020016040519081016040528093929190818152602001838380828437600092019190915250505090825250602001868684818110611a9157611a916123f3565b60209081029290920135835250600082820181905260408084018290526060909301819052858152600482528281208582529091522081518190611ad5908261246e565b5060208201516001820155604082015160028201805460ff191691151591909117905560608201516003820155608090910151600490910155817f3d198c5d9c28f50bf234c9c1a9a84f7ed3a20d152833a06c844a8e897261abd282898982818110611b4357611b436123f3565b9050602002810190611b55919061252e565b898987818110611b6757611b676123f3565b90506020020135604051611b7e949392919061259e565b60405180910390a280611b90816123b8565b915050611a0e565b50604051339082907f9a6f279818b6c3ecad22dd882c63460a80cee0df2841c888adb08588aff26c2290611bd5908e908e908e908e908d906125c9565b60405180910390a350505050505050505050565b6000546001600160a01b03163314610d2d5760405163118cdaa760e01b8152336004820152602401610563565b600054600160a01b900460ff1615610d2d5760405163d93c066560e01b815260040160405180910390fd5b611c49611d45565b60026000805160206125fb83398151915255565b611c65611d75565b6000805460ff60a01b191690557f5db9ee0a495bf2e6ff9c91a7834c1ba4fdd244a5e8aa4e537bd38aeae4b073aa335b6040516001600160a01b03909116815260200160405180910390a1565b600080546001600160a01b038381166001600160a01b0319831681178455604051919092169283917f8be0079c531659141344cd1fd0a4f28419497f9722a3daafe3b4186f6b6457e09190a35050565b611d0a611c16565b6000805460ff60a01b1916600160a01b1790557f62e78cea01bee320cd4e420270b5ea74000d11b0c9f74754ebdbfc544b05a258611c953390565b6000805160206125fb83398151915254600203610d2d57604051633ee5aeb560e01b815260040160405180910390fd5b600054600160a01b900460ff16610d2d57604051638dfc202b60e01b815260040160405180910390fd5b6040518061014001604052806000815260200160006001600160a01b03168152602001606081526020016000815260200160008152602001600081526020016000815260200160006003811115611df857611df8611e6b565b815260200160008152602001600081525090565b600060208284031215611e1e57600080fd5b5035919050565b6000815180845260005b81811015611e4b57602081850181015186830182015201611e2f565b506000602082860101526020601f19601f83011685010191505092915050565b634e487b7160e01b600052602160045260246000fd5b60048110611e9f57634e487b7160e01b600052602160045260246000fd5b9052565b8a81526001600160a01b038a16602082015261014060408201819052600090611ece8382018c611e25565b9150508860608301528760808301528660a08301528560c0830152611ef660e0830186611e81565b610100820193909352610120015298975050505050505050565b80356001600160a01b0381168114611f2757600080fd5b919050565b600060208284031215611f3e57600080fd5b611f4782611f10565b9392505050565b60008060408385031215611f6157600080fd5b50508035926020909101359150565b60a081526000611f8360a0830188611e25565b60208301969096525092151560408401526060830191909152608090910152919050565b60008060408385031215611fba57600080fd5b82359150611fca60208401611f10565b90509250929050565b6020808252825182820181905260009190848201906040850190845b818110156120145783516001600160a01b031683529284019291840191600101611fef565b50909695505050505050565b60208152815160208201526000602083015161204760408401826001600160a01b03169052565b506040830151610140806060850152612064610160850183611e25565b915060608501516080850152608085015160a085015260a085015160c085015260c085015160e085015260e08501516101006120a281870183611e81565b860151610120868101919091529095015193019290925250919050565b602081526000825160a060208401526120db60c0840182611e25565b90506020840151604084015260408401511515606084015260608401516080840152608084015160a08401528091505092915050565b60008083601f84011261212357600080fd5b50813567ffffffffffffffff81111561213b57600080fd5b6020830191508360208260051b850101111561215657600080fd5b9250929050565b60008060008060008060008060a0898b03121561217957600080fd5b883567ffffffffffffffff8082111561219157600080fd5b818b0191508b601f8301126121a557600080fd5b8135818111156121b457600080fd5b8c60208285010111156121c657600080fd5b60209283019a509850908a0135965060408a0135955060608a013590808211156121ef57600080fd5b6121fb8c838d01612111565b909650945060808b013591508082111561221457600080fd5b506122218b828c01612111565b999c989b5096995094979396929594505050565b60208082526022908201527f4d696c6573746f6e655661756c743a2063616d706169676e206e6f7420666f756040820152611b9960f21b606082015260800190565b60208082526023908201527f4d696c6573746f6e655661756c743a2063616d706169676e206e6f742061637460408201526269766560e81b606082015260800190565b602081016112af8284611e81565b600181811c908216806122dc57607f821691505b6020821081036122fc57634e487b7160e01b600052602260045260246000fd5b50919050565b60208082526021908201527f4d696c6573746f6e655661756c743a20696e76616c6964206d696c6573746f6e6040820152606560f81b606082015260800190565b634e487b7160e01b600052601160045260246000fd5b80820281158282048414176112af576112af612343565b60008261238d57634e487b7160e01b600052601260045260246000fd5b500490565b818103818111156112af576112af612343565b808201808211156112af576112af612343565b6000600182016123ca576123ca612343565b5060010190565b6000602082840312156123e357600080fd5b81518015158114611f4757600080fd5b634e487b7160e01b600052603260045260246000fd5b634e487b7160e01b600052604160045260246000fd5b601f82111561246957600081815260208120601f850160051c810160208610156124465750805b601f850160051c820191505b8181101561246557828155600101612452565b5050505b505050565b815167ffffffffffffffff81111561248857612488612409565b61249c8161249684546122c8565b8461241f565b602080601f8311600181146124d157600084156124b95750858301515b600019600386901b1c1916600185901b178555612465565b600085815260208120601f198616915b82811015612500578886015182559484019460019091019084016124e1565b508582101561251e5787850151600019600388901b60f8161c191681555b5050505050600190811b01905550565b6000808335601e1984360301811261254557600080fd5b83018035915067ffffffffffffffff82111561256057600080fd5b60200191503681900382131561215657600080fd5b81835281816020850137506000828201602090810191909152601f909101601f19169091010190565b8481526060602082015260006125b8606083018587612575565b905082604083015295945050505050565b6080815260006125dd608083018789612575565b60208301959095525060408101929092526060909101529291505056fe9b779b17422d0df92223018b32b4d1fa46e071723d6817e2486d003becc55f00a2646970667358221220d2dcb544d5377b6025eab3e8095e7dce194a4bf9bf721fb011d011ba6f3ee58764736f6c63430008140033",
  "linkReferences": {},
  "deployedLinkReferences": {}
}