{
  "_format": "hh-sol-artifact-1",
  "contractName": "NGORegistry",
  "sourceName": "contracts/NGORegistry.sol",
  "abi": [
    {
      "inputs": [],
      "stateMutability": "nonpayable",
      "type": "constructor"
    },
    {
      "inputs": [],
      "name": "EnforcedPause",
      "type": "error"
    },
    {
      "inputs": [],
      "name": "ExpectedPause",
      "type": "error"
    },
    {
      "inputs": [
        {
          "internalType": "address",
          "name": "owner",
          "type": "address"
        }
      ],
      "name": "OwnableInvalidOwner",
      "type": "error"
    },
    {
      "inputs": [
        {
          "internalType": "address",
          "name": "account",
          "type": "address"
        }
      ],
      "name": "OwnableUnauthorizedAccount",
      "type": "error"
    },
    {
      "anonymous": false,
      "inputs": [
        {
          "indexed": true,
          "internalType": "address",
          "name": "ngoAddress",
          "type": "address"
        },
        {
          "indexed": false,
          "internalType": "string",
          "name": "newMetadataIPFSHash",
          "type": "string"
        }
      ],
      "name": "NGOMetadataUpdated",
      "type": "event"
    },
    {
      "anonymous": false,
      "inputs": [
        {
          "indexed": true,
          "internalType": "address",
          "name": "ngoAddress",
          "type": "address"
        },
        {
          "indexed": false,
          "internalType": "string",
          "name": "name",
          "type": "string"
        },
        {
          "indexed": false,
          "internalType": "string",
          "name": "metadataIPFSHash",
          "type": "string"
        }
      ],
      "name": "NGORegistered",
      "type": "event"
    },
    {
      "anonymous": false,
      "inputs": [
        {
          "indexed": true,
          "internalType": "address",
          "name": "ngoAddress",
          "type": "address"
        }
      ],
      "name": "NGORevoked",
      "type": "event"
    },
    {
      "anonymous": false,
      "inputs": [
        {
          "indexed": true,
          "internalType": "address",
          "name": "ngoAddress",
          "type": "address"
        },
        {
          "indexed": false,
          "internalType": "uint256",
          "name": "verifiedAt",
          "type": "uint256"
        }
      ],
      "name": "NGOVerified",
      "type": "event"
    },
    {
      "anonymous": false,
      "inputs": [
        {
          "indexed": true,
          "internalType": "address",
          "name": "previousOwner",
          "type": "address"
        },
        {
          "indexed": true,
          "internalType": "address",
          "name": "newOwner",
          "type": "address"
        }
      ],
      "name": "OwnershipTransferred",
      "type": "event"
    },
    {
      "anonymous": false,
      "inputs": [
        {
          "indexed": false,
          "internalType": "address",
          "name": "account",
          "type": "address"
        }
      ],
      "name": "Paused",
      "type": "event"
    },
    {
      "anonymous": false,
      "inputs": [
        {
          "indexed": false,
          "internalType": "address",
          "name": "account",
          "type": "address"
        }
      ],
      "name": "Unpaused",
      "type": "event"
    },
    {
      "inputs": [],
      "name": "getAllNGOAddresses",
      "outputs": [
        {
          "internalType": "address[]",
          "name": "",
          "type": "address[]"
        }
      ],
      "stateMutability": "view",
      "type": "function"
    },
    {
      "inputs": [
        {
          "internalType": "address",
          "name": "_ngoAddress",
          "type": "address"
        }
      ],
      "name": "getNGO",
      "outputs": [
        {
          "components": [
            {
              "internalType": "string",
              "name": "name",
              "type": "string"
            },
            {
              "internalType": "address",
              "name": "walletAddress",
              "type": "address"
            },
            {
              "internalType": "bool",
              "name": "isVerified",
              "type": "bool"
            },
            {
              "internalType": "string",
              "name": "metadataIPFSHash",
              "type": "string"
            },
            {
              "internalType": "uint256",
              "name": "registeredAt",
              "type": "uint256"
            },
            {
              "internalType": "uint256",
              "name": "verifiedAt",
              "type": "uint256"
            }
          ],
          "internalType": "struct NGORegistry.NGO",
          "name": "",
          "type": "tuple"
        }
      ],
      "stateMutability": "view",
      "type": "function"
    },
    {
      "inputs": [],
      "name": "getNGOCount",
      "outputs": [
        {
          "internalType": "uint256",
          "name": "",
          "type": "uint256"
        }
      ],
      "stateMutability": "view",
      "type": "function"
    },
    {
      "inputs": [
        {
          "internalType": "address",
          "name": "_ngoAddress",
          "type": "address"
        }
      ],
      "name": "isNGOVerified",
      "outputs": [
        {
          "internalType": "bool",
          "name": "",
          "type": "bool"
        }
      ],
      "stateMutability": "view",
      "type": "function"
    },
    {
      "inputs": [
        {
          "internalType": "address",
          "name": "",
          "type": "address"
        }
      ],
      "name": "isRegistered",
      "outputs": [
        {
          "internalType": "bool",
          "name": "",
          "type": "bool"
        }
      ],
      "stateMutability": "view",
      "type": "function"
    },
    {
      "inputs": [
        {
          "internalType": "uint256",
          "name": "",
          "type": "uint256"
        }
      ],
      "name": "ngoAddresses",
      "outputs": [
        {
          "internalType": "address",
          "name": "",
          "type": "address"
        }
      ],
      "stateMutability": "view",
      "type": "function"
    },
    {
      "inputs": [
        {
          "internalType": "address",
          "name": "",
          "type": "address"
        }
      ],
      "name": "ngos",
      "outputs": [
        {
          "internalType": "string",
          "name": "name",
          "type": "string"
        },
        {
          "internalType": "address",
          "name": "walletAddress",
          "type": "address"
        },
        {
          "internalType": "bool",
          "name": "isVerified",
          "type": "bool"
        },
        {
          "internalType": "string",
          "name": "metadataIPFSHash",
          "type": "string"
        },
        {
          "internalType": "uint256",
          "name": "registeredAt",
          "type": "uint256"
        },
        {
          "internalType": "uint256",
          "name": "verifiedAt",
          "type": "uint256"
        }
      ],
      "stateMutability": "view",
      "type": "function"
    },
    {
      "inputs": [],
      "name": "owner",
      "outputs": [
        {
          "internalType": "address",
          "name": "",
          "type": "address"
        }
      ],
      "stateMutability": "view",
      "type": "function"
    },
    {
      "inputs": [],
      "name": "pause",
      "outputs": [],
      "stateMutability": "nonpayable",
      "type": "function"
    },
    {
      "inputs": [],
      "name": "paused",
      "outputs": [
        {
          "internalType": "bool",
          "name": "",
          "type": "bool"
        }
      ],
      "stateMutability": "view",
      "type": "function"
    },
    {
      "inputs": [
        {
          "internalType": "string",
          "name": "_name",
          "type": "string"
        },
        {
          "internalType": "address",
          "name": "_walletAddress",
          "type": "address"
        },
        {
          "internalType": "string",
          "name": "_metadataIPFSHash",
          "type": "string"
        }
      ],
      "name": "registerNGO",
      "outputs": [],
      "stateMutability": "nonpayable",
      "type": "function"
    },
    {
      "inputs": [],
      "name": "renounceOwnership",
      "outputs": [],
      "stateMutability": "nonpayable",
      "type": "function"
    },
    {
      "inputs": [
        {
          "internalType": "address",
          "name": "_ngoAddress",
          "type": "address"
        }
      ],
      "name": "revokeNGO",
      "outputs": [],
      "stateMutability": "nonpayable",
      "type": "function"
    },
    {
      "inputs": [
        {
          "internalType": "address",
          "name": "newOwner",
          "type": "address"
        }
      ],
      "name": "transferOwnership",
      "outputs": [],
      "stateMutability": "nonpayable",
      "type": "function"
    },
    {
      "inputs": [],
      "name": "unpause",
      "outputs": [],
      "stateMutability": "nonpayable",
      "type": "function"
    },
    {
      "inputs": [
        {
          "internalType": "address",
          "name": "_ngoAddress",
          "type": "address"
        },
        {
          "internalType": "string",
          "name": "_newMetadataIPFSHash",
          "type": "string"
        }
      ],
      "name": "updateMetadata",
      "outputs": [],
      "stateMutability": "nonpayable",
      "type": "function"
    },
    {
      "inputs": [
        {
          "internalType": "address",
          "name": "_ngoAddress",
          "type": "address"
        }
      ],
      "name": "verifyNGO",
      "outputs": [],
      "stateMutability": "nonpayable",
      "type": "function"
    }
  ],
  "bytecode": "0x608060405234801561001057600080fd5b50338061003757604051631e4fbdf760e01b81526000600482015260240160405180910390fd5b61004081610046565b50610096565b600080546001600160a01b038381166001600160a01b0319831681178455604051919092169283917f8be0079c531659141344cd1fd0a4f28419497f9722a3daafe3b4186f6b6457e09190a35050565b61149e806100a56000396000f3fe608060405234801561001057600080fd5b506004361061010b5760003560e01c80638119faed116100a2578063a63e5f9911610071578063a63e5f9914610230578063c3c5a54714610243578063da38d49814610266578063e6f7d11e14610279578063f2fde38b1461029e57600080fd5b80638119faed146101db5780638456cb59146101f05780638da5cb5b146101f85780639a09952f1461021d57600080fd5b80635a7f7015116100de5780635a7f7015146101695780635c975abb146101b05780636a6bbbf7146101c2578063715018a6146101d357600080fd5b8063121bea581461011057806322eb641d146101395780632d2c682f1461014e5780633f4ba83a14610161575b600080fd5b61012361011e366004610ee2565b6102b1565b6040516101309190610f4a565b60405180910390f35b61014c610147366004610ee2565b6104c0565b005b61014c61015c366004610ee2565b6105cf565b61014c6106fa565b6101a0610177366004610ee2565b6001600160a01b031660009081526001602081905260409091200154600160a01b900460ff1690565b6040519015158152602001610130565b600054600160a01b900460ff166101a0565b600254604051908152602001610130565b61014c61070c565b6101e361071e565b6040516101309190610fc2565b61014c610780565b6000546001600160a01b03165b6040516001600160a01b039091168152602001610130565b61014c61022b366004611058565b610790565b61020561023e3660046110dc565b610a7f565b6101a0610251366004610ee2565b60036020526000908152604090205460ff1681565b61014c6102743660046110f5565b610aa9565b61028c610287366004610ee2565b610bc8565b60405161013096959493929190611148565b61014c6102ac366004610ee2565b610d1e565b6102f56040518060c001604052806060815260200160006001600160a01b031681526020016000151581526020016060815260200160008152602001600081525090565b6001600160a01b03821660009081526003602052604090205460ff166103365760405162461bcd60e51b815260040161032d9061119a565b60405180910390fd5b6001600160a01b03821660009081526001602052604090819020815160c08101909252805482908290610368906111d1565b80601f0160208091040260200160405190810160405280929190818152602001828054610394906111d1565b80156103e15780601f106103b6576101008083540402835291602001916103e1565b820191906000526020600020905b8154815290600101906020018083116103c457829003601f168201915b505050918352505060018201546001600160a01b0381166020830152600160a01b900460ff1615156040820152600282018054606090920191610423906111d1565b80601f016020809104026020016040519081016040528092919081815260200182805461044f906111d1565b801561049c5780601f106104715761010080835404028352916020019161049c565b820191906000526020600020905b81548152906001019060200180831161047f57829003601f168201915b50505050508152602001600382015481526020016004820154815250509050919050565b6104c8610d5c565b6001600160a01b038116600090815260036020526040902054819060ff166105025760405162461bcd60e51b815260040161032d9061119a565b6001600160a01b03821660009081526001602081905260409091200154600160a01b900460ff166105755760405162461bcd60e51b815260206004820152601960248201527f4e474f52656769737472793a206e6f7420766572696669656400000000000000604482015260640161032d565b6001600160a01b0382166000818152600160208190526040808320918201805460ff60a01b191690556004909101829055517f7ba08e446ff4b8216e30855846bd3920cda05e21ddec09b192ecc5986519ff4a9190a25050565b6105d7610d5c565b6001600160a01b038116600090815260036020526040902054819060ff166106115760405162461bcd60e51b815260040161032d9061119a565b610619610d89565b6001600160a01b03821660009081526001602081905260409091200154600160a01b900460ff161561068d5760405162461bcd60e51b815260206004820152601d60248201527f4e474f52656769737472793a20616c7265616479207665726966696564000000604482015260640161032d565b6001600160a01b038216600081815260016020818152604092839020918201805460ff60a01b1916600160a01b17905542600490920182905591519081527fa191e977cbb19f6b81b753084c0fd6baea0ff2c2995647f79619a2a36e559e63910160405180910390a25050565b610702610d5c565b61070a610db4565b565b610714610d5c565b61070a6000610e09565b6060600280548060200260200160405190810160405280929190818152602001828054801561077657602002820191906000526020600020905b81546001600160a01b03168152600190910190602001808311610758575b5050505050905090565b610788610d5c565b61070a610e59565b610798610d89565b6001600160a01b0383166107ee5760405162461bcd60e51b815260206004820152601960248201527f4e474f52656769737472793a207a65726f206164647265737300000000000000604482015260640161032d565b8361083b5760405162461bcd60e51b815260206004820152601760248201527f4e474f52656769737472793a20656d707479206e616d65000000000000000000604482015260640161032d565b6001600160a01b03831660009081526003602052604090205460ff16156108a45760405162461bcd60e51b815260206004820152601f60248201527f4e474f52656769737472793a20616c7265616479207265676973746572656400604482015260640161032d565b6040518060c0016040528086868080601f01602080910402602001604051908101604052809392919081815260200183838082843760009201829052509385525050506001600160a01b0386166020808401919091526040808401929092528151601f86018290048202810182019092528482526060909201918590859081908401838280828437600092018290525093855250504260208085019190915260409384018390526001600160a01b03881683526001905250208151819061096b9082611270565b50602082015160018201805460408501511515600160a01b026001600160a81b03199091166001600160a01b0390931692909217919091179055606082015160028201906109b99082611270565b50608082015160038281019190915560a0909201516004909101556002805460018082019092557f405787fa12a823e0f2b7631cc41b3ba8828b3321ca811111fa75cd3aa3bb5ace0180546001600160a01b0319166001600160a01b0387169081179091556000818152602093909352604092839020805460ff191690921790915590517f6031354d82545f16aa39f1670ff68b4f7c963c8ff676ae121071d88b5cc9255990610a70908890889087908790611359565b60405180910390a25050505050565b60028181548110610a8f57600080fd5b6000918252602090912001546001600160a01b0316905081565b6001600160a01b038316600090815260036020526040902054839060ff16610ae35760405162461bcd60e51b815260040161032d9061119a565b610aeb610d89565b336001600160a01b0385161480610b0c57506000546001600160a01b031633145b610b585760405162461bcd60e51b815260206004820152601b60248201527f4e474f52656769737472793a206e6f7420617574686f72697a65640000000000604482015260640161032d565b6001600160a01b0384166000908152600160205260409020600201610b7e83858361138b565b50836001600160a01b03167f17453029d9dd028902e9dbb1446d09d6f491709164f51003a25f6ce01c9bbc8d8484604051610bba92919061144c565b60405180910390a250505050565b600160205260009081526040902080548190610be3906111d1565b80601f0160208091040260200160405190810160405280929190818152602001828054610c0f906111d1565b8015610c5c5780601f10610c3157610100808354040283529160200191610c5c565b820191906000526020600020905b815481529060010190602001808311610c3f57829003601f168201915b50505050600183015460028401805493946001600160a01b03831694600160a01b90930460ff16935091610c8f906111d1565b80601f0160208091040260200160405190810160405280929190818152602001828054610cbb906111d1565b8015610d085780601f10610cdd57610100808354040283529160200191610d08565b820191906000526020600020905b815481529060010190602001808311610ceb57829003601f168201915b5050505050908060030154908060040154905086565b610d26610d5c565b6001600160a01b038116610d5057604051631e4fbdf760e01b81526000600482015260240161032d565b610d5981610e09565b50565b6000546001600160a01b0316331461070a5760405163118cdaa760e01b815233600482015260240161032d565b600054600160a01b900460ff161561070a5760405163d93c066560e01b815260040160405180910390fd5b610dbc610e9c565b6000805460ff60a01b191690557f5db9ee0a495bf2e6ff9c91a7834c1ba4fdd244a5e8aa4e537bd38aeae4b073aa335b6040516001600160a01b03909116815260200160405180910390a1565b600080546001600160a01b038381166001600160a01b0319831681178455604051919092169283917f8be0079c531659141344cd1fd0a4f28419497f9722a3daafe3b4186f6b6457e09190a35050565b610e61610d89565b6000805460ff60a01b1916600160a01b1790557f62e78cea01bee320cd4e420270b5ea74000d11b0c9f74754ebdbfc544b05a258610dec3390565b600054600160a01b900460ff1661070a57604051638dfc202b60e01b815260040160405180910390fd5b80356001600160a01b0381168114610edd57600080fd5b919050565b600060208284031215610ef457600080fd5b610efd82610ec6565b9392505050565b6000815180845260005b81811015610f2a57602081850181015186830182015201610f0e565b506000602082860101526020601f19601f83011685010191505092915050565b602081526000825160c06020840152610f6660e0840182610f04565b905060018060a01b0360208501511660408401526040840151151560608401526060840151601f19848303016080850152610fa18282610f04565b915050608084015160a084015260a084015160c08401528091505092915050565b6020808252825182820181905260009190848201906040850190845b818110156110035783516001600160a01b031683529284019291840191600101610fde565b50909695505050505050565b60008083601f84011261102157600080fd5b50813567ffffffffffffffff81111561103957600080fd5b60208301915083602082850101111561105157600080fd5b9250929050565b60008060008060006060868803121561107057600080fd5b853567ffffffffffffffff8082111561108857600080fd5b61109489838a0161100f565b90975095508591506110a860208901610ec6565b945060408801359150808211156110be57600080fd5b506110cb8882890161100f565b969995985093965092949392505050565b6000602082840312156110ee57600080fd5b5035919050565b60008060006040848603121561110a57600080fd5b61111384610ec6565b9250602084013567ffffffffffffffff81111561112f57600080fd5b61113b8682870161100f565b9497909650939450505050565b60c08152600061115b60c0830189610f04565b6001600160a01b0388166020840152861515604084015282810360608401526111848187610f04565b6080840195909552505060a00152949350505050565b6020808252601f908201527f4e474f52656769737472793a204e474f206e6f74207265676973746572656400604082015260600190565b600181811c908216806111e557607f821691505b60208210810361120557634e487b7160e01b600052602260045260246000fd5b50919050565b634e487b7160e01b600052604160045260246000fd5b601f82111561126b57600081815260208120601f850160051c810160208610156112485750805b601f850160051c820191505b8181101561126757828155600101611254565b5050505b505050565b815167ffffffffffffffff81111561128a5761128a61120b565b61129e8161129884546111d1565b84611221565b602080601f8311600181146112d357600084156112bb5750858301515b600019600386901b1c1916600185901b178555611267565b600085815260208120601f198616915b82811015611302578886015182559484019460019091019084016112e3565b50858210156113205787850151600019600388901b60f8161c191681555b5050505050600190811b01905550565b81835281816020850137506000828201602090810191909152601f909101601f19169091010190565b60408152600061136d604083018688611330565b8281036020840152611380818587611330565b979650505050505050565b67ffffffffffffffff8311156113a3576113a361120b565b6113b7836113b183546111d1565b83611221565b6000601f8411600181146113eb57600085156113d35750838201355b600019600387901b1c1916600186901b178355611445565b600083815260209020601f19861690835b8281101561141c57868501358255602094850194600190920191016113fc565b50868210156114395760001960f88860031b161c19848701351681555b505060018560011b0183555b5050505050565b602081526000611460602083018486611330565b94935050505056fea26469706673582212204c235f809096dcd395b3f27d22aa2a3bc04f15ae0ca88b19e185f5dd635a6a4664736f6c63430008140033",
  "linkReferences": {},
  "deployedLinkReferences": {}
}